:100000000C9462000C948A000C948A000C948A0070
:100010000C948A000C948A000C948A000C948A0038
:100020000C948A000C948A000C948A000C948A0028
:100030000C948A000C948A000C948A000C948A0018
:100040000C949B020C948A000C940B030C94E50214
:100050000C948A000C948A000C948A000C948A00F8
:100060000C948A000C948A000000000024002700F1
:100070002A000000000023002600290000000000E4
:10008000250028002B0004040404040404040202D4
:100090000202020203030303030301020408102007
:1000A0004080010204081020010204081020000012
:1000B0000008000201000003040700000000000027
:1000C0000000070811241FBECFEFD8E0DEBFCDBF70
:1000D00011E0A0E0B1E0E8E7F0E102C005900D9288
:1000E000A231B107D9F722E0A2E1B1E001C01D922F
:1000F000A23FB207E1F710E0C2E6D0E004C02197CA
:10010000FE010E943408C136D107C9F70E943D03A1
:100110000C943A080C940000FC0181E080838283F7
:100120001482168217821086118612861386148610
:1001300015861786118A128A138A148A158A168AD6
:10014000178A108E128E148E168E178E10A211A280
:1001500012A213A214A215A217A210A611A612A6EB
:1001600013A614A615A616A60895FC01538D448D5A
:10017000252F30E0842F90E0821B930B541710F052
:10018000CF96089501970895FC01918D828D98175F
:1001900061F0A28DAE0FBF2FB11D5D968C91928D37
:1001A0009F5F9F73928F90E008958FEF9FEF089568
:1001B000FC01918D828D981731F0828DE80FF11D31
:1001C000858D90E008958FEF9FEF0895FC01918D4C
:1001D000228D892F90E0805C9F4F821B91098F7345
:1001E00099270895FC01A48DA80FB92FB11DA35A1A
:1001F000BF4F2C91848D90E001968F739927848F47
:10020000A689B7892C93A089B1898C918370806469
:100210008C93938D848D981306C00288F389E02D0A
:1002200080818F7D80830895EF92FF920F931F93BB
:10023000CF93DF93EC0181E0888F9B8D8C8D981399
:100240001AC0E889F989808185FF15C09FB7F894A5
:10025000EE89FF896083E889F989808183708064F1
:1002600080839FBF81E090E0DF91CF911F910F913C
:10027000FF90EF900895F62E0B8D10E00F5F1F4F4B
:100280000F731127E02E8C8D8E110CC00FB607FC5A
:10029000FACFE889F989808185FFF5CFCE010E94E8
:1002A000F200F1CFEB8DEC0FFD2FF11DE35AFF4F64
:1002B000F0829FB7F8940B8FEA89FB898081806276
:1002C000CFCFCF93DF93EC01888D8823B9F0AA8933
:1002D000BB89E889F9898C9185FD03C0808186FD01
:1002E0000DC00FB607FCF7CF8C9185FFF2CF808150
:1002F00085FFEDCFCE010E94F200E9CFDF91CF91D3
:10030000089584E191E00E94E60021E0892B09F440
:1003100020E0822F089580E090E0892B29F00E9450
:10032000810181110C9400000895833081F028F43C
:10033000813099F08230A9F008958730A9F0883093
:10034000C9F08430B1F4809180008F7D03C080912A
:1003500080008F7780938000089584B58F7784BD67
:10036000089584B58F7DFBCF8091B0008F77809307
:10037000B00008958091B0008F7DF9CF3FB7F89419
:100380008091EE029091EF02A091F002B091F10203
:1003900026B5A89B05C02F3F19F00196A11DB11DE0
:1003A0003FBFBA2FA92F982F8827BC01CD01620F1C
:1003B000711D811D911D42E0660F771F881F991FD7
:1003C0004A95D1F70895AF92BF92CF92DF92EF9204
:1003D000FF920F931F93CF93DF936C017B018B01EF
:1003E000040F151FEB015E01AE18BF08C017D1073F
:1003F00059F06991D601ED91FC910190F081E02DC9
:10040000C6010995892B79F7C501DF91CF911F911D
:100410000F91FF90EF90DF90CF90BF90AF90089535
:10042000FC0184819581A681B781408151816281DF
:100430007381811526E3920725E6A20724ECB20713
:100440003CF014161506160617068CF4B7FF0FC0FD
:10045000415051096109710940835183628373835B
:100460009653A546B44C84839583A683B783848131
:100470009581A681B78140815181628173818130EC
:100480002AEC92072AE9A2072BE3B2073CF477FF94
:1004900014C0181619061A061B067CF44F5F5F4F2E
:1004A0006F4F7F4F40835183628373839A5CAA4965
:1004B000BB4384839583A683B7830895CF92DF924D
:1004C000EF92FF920F931F93CF93DF93CDB7DEB7D9
:1004D00088899989AA89BB894C895D896E897F89B8
:1004E000088D198D2A8D3B8DCC8CDD8CEE8CFF8C8C
:1004F00080179107A207B30759F44C195D096E09DB
:100500007F0914161506160617065CF081E00AC06E
:10051000801B910BA20BB30B181619061A061B06AB
:10052000ACF780E0DF91CF911F910F91FF90EF909A
:10053000DF90CF9008951F920F920FB60F92112463
:100540002F933F938F939F93AF93BF938091EA0232
:100550009091EB02A091EC02B091ED023091E90292
:1005600023E0230F2D3758F50196A11DB11D2093CF
:10057000E9028093EA029093EB02A093EC02B0931D
:10058000ED028091EE029091EF02A091F002B09105
:10059000F1020196A11DB11D8093EE029093EF022E
:1005A000A093F002B093F102BF91AF919F918F9110
:1005B0003F912F910F900FBE0F901F90189526E836
:1005C000230F0296A11DB11DD2CF1F920F920FB61D
:1005D0000F9211242F933F934F935F936F937F93C9
:1005E0008F939F93AF93BF93EF93FF9384E191E039
:1005F0000E94F200FF91EF91BF91AF919F918F9177
:100600007F916F915F914F913F912F910F900FBE0E
:100610000F901F9018951F920F920FB60F921124F2
:100620002F938F939F93EF93FF93E0912401F09189
:1006300025018081E0912A01F0912B0182FD1BC0F0
:10064000908180912D018F5F8F7320912E018217F1
:1006500041F0E0912D01F0E0EC5EFE4F958F80932C
:100660002D01FF91EF919F918F912F910F900FBED0
:100670000F901F9018958081F4CFCF93DF93CDB763
:10068000DEB7C954D1090FB6F894DEBF0FBECDBF97
:10069000789484B5826084BD84B5816084BD85B55D
:1006A000826085BD85B5816085BD80916E00816069
:1006B00080936E001092810080918100826080930F
:1006C0008100809181008160809381008091800011
:1006D0008160809380008091B10084608093B1003C
:1006E0008091B00081608093B00080917A00846036
:1006F00080937A0080917A00826080937A00809162
:100700007A00816080937A0080917A00806880937B
:100710007A001092C1001092C10183EC91E00E9416
:100720008C0083EF91E00E948C0082E090E0A0E0DA
:10073000B0E08093230290932402A0932502B0930B
:10074000260210922702109228021092290210927B
:100750002A028CE292E00E948C008CE592E00E94DA
:100760008C0023E131E030938D0220938C021092B3
:10077000130182E191E09093910280939002109294
:1007800012013093B2012093B101909395028093AE
:100790009402ECE9F0E0249168E8262E60E0362E21
:1007A000F10184918823C9F090E0880F991FFC0122
:1007B000E859FF4FA591B491FC01E458FF4F4591D2
:1007C00054913FB7F8949C91822F809598239C93E5
:1007D000FA019081892380833FBFE7EAF0E024910A
:1007E00043E9A42E40E0B42EF5018491882399F0CA
:1007F00090E0880F991FFC01E859FF4FA591B49133
:10080000FC01E458FF4F859194918FB7F8949C9127
:10081000292B2C938FBF80E29EE4A0E0B0E0809370
:10082000E1029093E202A093E302B093E4020E94FB
:10083000BE016093E5027093E6028093E702909315
:10084000E80211E002E020E0822E20E0922E0E94D9
:10085000BE014090E5025090E6026090E702709081
:10086000E80264197509860997094090E1025090E1
:10087000E2026090E3027090E4026415750586055B
:10088000970508F40DC18091B1019091B201892BB7
:10089000F9F0E0EBF0E08491ECE9F0E07490F10124
:1008A000F490FF2079F081110E949501EF2DF0E086
:1008B000EE0FFF1FEE58FF4FA591B4918C91782257
:1008C00081E009F480E0E091B101F091B201808310
:1008D0008091DC029091DD02A091DE02B091DF02F6
:1008E0000196A11DB11D8093DC029093DD02A093BF
:1008F000DE02B093DF028091C80181FD07C081E074
:100900009091C101911180E08093C7018091D10144
:1009100081FD09C088E0E3E2F2E0A9ECB1E00190DA
:100920000D928A95E1F78091C60182709091C30182
:100930009111C2C0811102C01092C5018091F801CD
:1009400081FD04C08091D2018093F7018091010262
:1009500081FD09C088E0E3E2F2E0A9EFB1E0019097
:100960000D928A95E1F78091F60182709091F301E2
:100970009111DDC1811102C01092F5018091C20177
:1009800081FD04C0809102028093C1018091920296
:1009900081FD13C08091C10181110DC380918E0230
:1009A00081FF02C381E090918F02911101C080E02C
:1009B000E0919002F09191028083A0919402B09115
:1009C00095021097F9F0EBEBF0E08491E7EAF0E0A4
:1009D0007490F501F490FF20A9F06C9081110E94B1
:1009E0009501EF2DF0E0EE0FFF1FE458FF4FA591AA
:1009F000B4919FB7F8948C91662009F4DEC2782AEE
:100A00007C929FBF8091D8029091D902A091DA0286
:100A1000B091DB02AC01BD01535D6E4C7E4F4115C0
:100A2000FAEC5F07FAE96F07FBE37F0708F0C8C23B
:100A30004093D8025093D9026093DA027093DB029C
:100A40004090E1025090E2026090E3027090E40274
:100A50008091E002811110C01093E0020E94BE015B
:100A600064197509860997096093E5027093E60297
:100A70008093E7029093E8028091E5029091E6026C
:100A8000A091E702B091E802840D951DA61DB71D47
:100A90008093E5029093E602A093E702B093E80208
:100AA0008114910409F4D3CE0E948101882309F4B2
:100AB000C8CE0E940000C5CE811102C01093C501AE
:100AC0008091E90181FD09C088E0E4EDF2E0A1EE4A
:100AD000B1E001900D928A95E1F7F091DD012A963F
:100AE000FFAF2A978091C701F1111EC09091DF01DD
:100AF000911186C28823D1F08091DE0181FF10938D
:100B0000DD018091D30181FF1092D2018091F20129
:100B100081FD2AC088E0E1EEF1E0AAEEB1E00190AB
:100B20000D928A95E1F720C0811127C08091DC01E8
:100B300081FD10C01092D4011092D5011092D601FF
:100B40001092D7011092D8011092D9011092DA01B7
:100B50001092DB018091D30181FF1092D20180912C
:100B6000DE0181FF1092DD018091E00181FDE6CE82
:100B70008091C7018093DF01E1CE2A962FAD2A979D
:100B8000213091F78091EE019091EF01A091F00159
:100B9000B091F1014090CD015090CE016090CF0115
:100BA0007090D0014091EA015091EB016091EC010D
:100BB0007091ED01C090C901D090CA01E090CB01C5
:100BC000F090CC014C0D5D1D6E1D7F1D498B5A8B25
:100BD0006B8B7C8B840D951DA61DB71D8D8B9E8BFD
:100BE000AF8BB88FCE0141960E94100288E0FE01C3
:100BF0007196DE01D99601900D928A95E1F788E011
:100C0000FE01F996DE01AF5BBF4F01900D928A9510
:100C1000E1F700D000D000D000D0ADB7BEB711963C
:100C200088E0E1EEF1E001900D928A95E1F700D0C5
:100C300000D000D000D0ADB7BEB7119688E0FE015D
:100C4000EF5BFF4F01900D928A95E1F71F920F9392
:100C50001F921F922A963FAD2A973F930E945E02F1
:100C60000FB6F894DEBF0FBECDBF9091DC01882394
:100C700091F08091DE0181FF0093DD018091D3012D
:100C800081FF1093D20188E0E9ECF1E091FD6CCF97
:100C9000A4EDB1E044CF91FD67CF8091E501909143
:100CA000E601A091E701B091E8014090EE0150907B
:100CB000EF016090F0017090F1014091E1015091DD
:100CC000E2016091E3017091E401C090EA01D090EB
:100CD000EB01E090EC01F090ED014C195D096E091B
:100CE0007F09498B5A8B6B8B7C8B84199509A609DC
:100CF000B7098D8B9E8BAF8BB88FCE0141960E942A
:100D0000100288E0FE017196DE01999601900D9225
:100D10008A95E1F788E0FE01B996DE01D19601904F
:100D20000D928A95E1F788E0FE01F196B1CF81112D
:100D300002C01093F5018091190281FD09C088E07D
:100D4000E4EDF2E0A1E1B2E001900D928A95E1F7C5
:100D5000F0910D022A96FFAF2A978091F701F111C9
:100D60001AC090910F02992309F44DC1811115C049
:100D700080910E0281FF10930D028091220281FD6D
:100D800025C088E0E1E1F2E0AAE1B2E001900D9235
:100D90008A95E1F71BC0882391F180910C0281FDB7
:100DA00010C01092040210920502109206021092D6
:100DB0000702109208021092090210920A02109281
:100DC0000B0280910E0281FF10920D0280910302AE
:100DD00081FD0CC08091F7018111E4C081E0909108
:100DE0000D02913009F080E08093020280911002A0
:100DF00081FDC4CD8091F70180930F02BFCD2A966B
:100E00002FAD2A97213011F780911E0290911F0279
:100E1000A0912002B09121024090FD015090FE016E
:100E20006090FF017090000240911A0250911B02E5
:100E300060911C0270911D02C090F901D090FA01DE
:100E4000E090FB01F090FC014C0D5D1D6E1D7F1DBF
:100E5000498B5A8B6B8B7C8B840D951DA61DB71D02
:100E60008D8B9E8BAF8BB88FCE0141960E94100266
:100E700088E0FE017196DE01599601900D928A95E7
:100E8000E1F788E0FE017996DE01919601900D92DE
:100E90008A95E1F700D000D000D000D0ADB7BEB742
:100EA000119688E0E1E1F2E001900D928A95E1F778
:100EB00000D000D000D000D0ADB7BEB7119688E00A
:100EC000FE01B19601900D928A95E1F71F920F9362
:100ED0001F921F922A963FAD2A973F930E945E026F
:100EE0000FB6F894DEBF0FBECDBF90910C028823E1
:100EF00069F080910E0281FF00930D0288E0E9EF16
:100F0000F1E091FD63CFA4E0B2E040CF91FD5ECF70
:100F10008091150290911602A0911702B0911802CB
:100F200040901E0250901F0260902002709021029B
:100F300040911102509112026091130270911402BB
:100F4000C0901A02D0901B02E0901C02F0901D028B
:100F50004C195D096E097F09498B5A8B6B8B7C8B11
:100F600084199509A609B7098D8B9E8BAF8BB88F15
:100F7000CE0141960E94100288E0FE017196DE01CA
:100F8000119601900D928A95E1F788E0FE01319665
:100F9000DE01199601900D928A95E1F788E0FE0135
:100FA0003996B1CF81E020CFE0918C02F0918D0293
:100FB00081E09081FACC81E0FBCC7094782220CD46
:100FC0004091D4025091D5026091D6027091D7021F
:100FD0009D59A946BA438093D8029093D902A09311
:100FE000DA02B093DB024F5F5F4F6F4F7F4F40934A
:100FF000D4025093D5026093D6027093D70220CDCD
:101000008111B2CD93CD882309F4E0CEC6CEE4E1C0
:10101000F1E01382128288EE93E0A0E0B0E08483D6
:101020009583A683B78384E091E09183808385ECE8
:1010300090E09587848784EC90E09787868780ECA2
:1010400090E0918B808B81EC90E0938B828B82EC93
:1010500090E0958B848B86EC90E0978B868B118E3D
:10106000128E138E148E0895EE0FFF1F0590F491CB
:08107000E02D0994F894FFCF74
:10107800000000001401E301B5006101E600C400AE
:02108800D8008E
:00000001FF
